:100000000C9463000C948B000C948B000C941108DE
:100010000C9411080C9411080C948B000C948B0018
:100020000C948B000C948B000C948B000C948B0024
:100030000C948B000C948B000C948B000C948B0014
:100040000C94C7070C948B000C9495070C946F07C5
:100050000C948B000C948B000C948B000C948B00F4
:100060000C948B000C948B000000000024002700EF
:100070002A0000000008000201000003040700003D
:1000800000000000000000000000230026002900FE
:1000900000000000250028002B00040404040404D0
:1000A0000404020202020202030303030303010227
:1000B00004081020408001020408102001020408F6
:1000C00010208908DB0D11241FBECFEFD8E0DEBF62
:1000D000CDBF12E0A0E0B1E0EEE2F1E202C0059097
:1000E0000D92A233B107D9F723E0A2E3B2E001C039
:1000F0001D92A636B207E1F710E0C2E6D0E004C0D8
:100100002197FE010E948410C136D107C9F70E94D1
:100110007B090C948A100C940000CF92DF92EF922E
:10012000FF92CF93DF93B0915A03A0E08111AB2FE0
:1001300080915B0390E0880F991FAC014A575F4F95
:10014000C0906003D0906103E0906203F09063037D
:1001500030E020E0FA01C591D491E881B90190E046
:1001600080E0EB23EA130AC02F5F3F4F6C157D053B
:100170008E059F0578F36FEF7FEFCB01DF91CF9175
:10018000FF90EF90DF90CF900895DC01ED91FC910E
:100190000190F081E02D0994AF92BF92CF92DF924F
:1001A000EF92FF920F931F93CF93DF936C017B012C
:1001B0008B01040F151FEB015E01AE18BF08C017BD
:1001C000D10759F06991D601ED91FC910190F08130
:1001D000E02DC6010995892B79F7C501DF91CF91F3
:1001E0001F910F91FF90EF90DF90CF90BF90AF9055
:1001F0000895FC01538D448D252F30E0842F90E02D
:10020000821B930B541710F0CF9608950197089511
:10021000FC01918D828D981761F0A28DAE0FBF2FDA
:10022000B11D5D968C91928D9F5F9F73928F90E030
:1002300008958FEF9FEF0895FC01918D828D98179F
:1002400031F0828DE80FF11D858D90E008958FEFDC
:100250009FEF0895FC01918D228D892F90E0805CA5
:100260009F4F821B91098F73992708958FE792E022
:100270000E942A0121E0892B09F420E0822F0895B1
:1002800080E090E0892B29F00E94360181110C94C6
:1002900000000895FC01A48DA80FB92FB11DA35A29
:1002A000BF4F2C91848D90E001968F739927848F96
:1002B000A689B7892C93A089B1898C9183708064B9
:1002C0008C93938D848D981306C00288F389E02D5A
:1002D00080818F7D80830895EF92FF920F931F930B
:1002E000CF93DF93EC0181E0888F9B8D8C8D9813E9
:1002F0001AC0E889F989808185FF15C09FB7F894F5
:10030000EE89FF896083E889F98980818370806440
:1003100080839FBF81E090E0DF91CF911F910F918B
:10032000FF90EF900895F62E0B8D10E00F5F1F4F9A
:100330000F731127E02E8C8D8E110CC00FB607FCA9
:10034000FACFE889F989808185FFF5CFCE010E9437
:100350004A01F1CFEB8DEC0FFD2FF11DE35AFF4F5A
:10036000F0829FB7F8940B8FEA89FB8980818062C5
:10037000CFCFCF93DF93EC01888D8823B9F0AA8982
:10038000BB89E889F9898C9185FD03C0808186FD50
:100390000DC00FB607FCF7CF8C9185FFF2CF80819F
:1003A00085FFEDCFCE010E944A01E9CFDF91CF91C9
:1003B0000895833081F028F4813099F08230A9F0DB
:1003C00008958730A9F08830C9F08430B1F4809165
:1003D00080008F7D03C0809180008F7780938000A4
:1003E000089584B58F7784BD089584B58F7DFBCF44
:1003F0008091B0008F778093B00008958091B00015
:100400008F7DF9CF1F93CF93DF93282F30E0F90131
:10041000EE58FF4F8491F901E255FF4FD491F90155
:10042000E656FF4FC491CC23A9F0162F81110E94EC
:10043000D901EC2FF0E0EE0FFF1FE057FF4FA59121
:10044000B4918FB7F894EC91111108C0D095DE23C8
:10045000DC938FBFDF91CF911F910895DE2BF8CFF2
:10046000CF93DF9390E0FC01E255FF4F2491865635
:100470009F4FFC0184918823C9F090E0880F991F59
:10048000FC01E859FF4FA591B491FC01E057FF4FE3
:10049000C591D49161110DC09FB7F8948C912095AE
:1004A00082238C938881282328839FBFDF91CF915B
:1004B0000895623051F49FB7F8943C91822F809553
:1004C00083238C93E8812E2BEFCF8FB7F894EC9198
:1004D0002E2B2C938FBFEACF8E50806480937C00AC
:1004E00080917A00806480937A0080917A0086FD02
:1004F000FCCF809178009091790008953FB7F894EF
:100500008091730290917402A0917502B09176026D
:1005100026B5A89B05C02F3F19F00196A11DB11D5E
:100520003FBFBA2FA92F982F8827BC01CD01620F9A
:10053000711D811D911D42E0660F771F881F991F55
:100540004A95D1F708958F929F92AF92BF92CF9222
:10055000DF92EF92FF924B015C010E947E026B01E1
:100560007C010E947E026C197D098E099F09683EFC
:10057000734081059105A8F321E0821A9108A10832
:10058000B10888EEC80E83E0D81EE11CF11C81146E
:100590009104A104B10429F7FF90EF90DF90CF9070
:1005A000BF90AF909F908F900895CF92DF92EF927F
:1005B000FF920F931F93CF93DF93CDB7DEB7C05455
:1005C000D1400FB6F894DEBF0FBECDBF2FB7F89461
:1005D00080917B0290917C02A0917D02B0917E027D
:1005E0002FBF40915C0350915D0360915E03709159
:1005F0005F038C019D01041B150B260B370BB90102
:10060000A801403D57406105710590F48091640355
:10061000C05CDE4F0FB6F894DEBF0FBECDBFDF91DA
:10062000CF911F910F91FF90EF90DF90CF900895A1
:1006300080935C0390935D03A0935E03B0935F038C
:1006400010925703109256031092550310925403C0
:100650001092530362E0809158030E94300261E0DF
:1006600070E080E090E00E94A30261E08091580376
:100670000E94300260E0809158030E940202809143
:1006800059038551823020F58BE291E10197F1F712
:1006900062E0809158030E9430028091650390E0EF
:1006A0008230910538F0880F991F880F991F0597A0
:1006B0000197F1F7F89480E00E948D006F3F7F4F23
:1006C0008F4F9F4F61F410926403789480E0A0CF25
:1006D00064E170E080E090E00E94A302D9CF81E065
:1006E0000E948D006F3F7F4F8F4F9F4F61F38E01B0
:1006F0000F5F1F4F6E018FEBC81A8EEFD80A78017B
:1007000080E00E948D00F701608371838283938370
:1007100081E00E948D00F70164837583868397834F
:10072000F8E0EF0EF11CEC14FD0451F7789430E082
:1007300020E0F801C080D180E280F38044815581BF
:1007400066817781FFEFCF16DF06EF06FF0631F0F7
:100750004F3F8FEF58076807780719F4109264032A
:10076000B5CFF90183E0F595E7958A95E1F7ED5A64
:10077000FC4F8081880FC416D506E606F70610F1F7
:1007800080832F5F3F4F085F1F4F2832310589F666
:10079000409157032091530380915403280F33272E
:1007A000331F80915503280F311D80915603820F0E
:1007B000932F911D99274817190681F681E08093A0
:1007C000640326CF8160DCCF2091790230917A02D8
:1007D0002817390771F49091770280917802981761
:1007E00041F0E0917702F0E0EE5CFD4F808190E017
:1007F00008958FEF9FEF08950895EF92FF920F9362
:100800001F93CF93DF93DC015C96ED90FC905D9796
:10081000E114F10479F481E090E013969C938E93B7
:10082000129790E080E0DF91CF911F910F91FF90A0
:10083000EF9008955196ED91FC91529750968C91BE
:100840005097982F90950FB75E962C915E97122F28
:10085000127021FD6095F8942081112319F1282B45
:100860002083E7012197F1F728E0462F50E03081FF
:1008700060FF1AC0382B3083E7012197F1F7BA01E6
:1008800075956795215089F7112381F0808189231F
:1008900080830FBF5C968D919C910197F1F781E069
:1008A00090E0C1CF2923DCCF3923E5CF9081892B7C
:1008B000EFCF2091790230917A022817390771F42D
:1008C000809178022091770290E0805C9F4F821B9C
:1008D000910960E470E00E943A10089590E080E091
:1008E00008952091790230917A0228173907B9F4D6
:1008F0009091770280917802981789F0E0917702C1
:10090000F0E0EE5CFD4F80812091770230E02F5FB8
:100910003F4F2F7333272093770290E008958FEF96
:100920009FEF0895089590E080E00895CF93DF93BE
:10093000EC0160E08E810E94020261E08E810E94E3
:10094000020260E08E810E9402028BE891E0019732
:10095000F1F7DF91CF910895CF92DF92EF92FF925E
:100960000F931F93CF93DF936C017C0187E0E80E18
:10097000F11CD0E0C0E0062F10E0B8010C2E02C040
:10098000759567950A94E2F76170F70181917F018F
:100990000E9402022196C430D10579F7C601DF9189
:1009A000CF911F910F91FF90EF90DF90CF900C941B
:1009B0009604CF92DF92EF92FF920F931F93CF9303
:1009C000DF93EC01F62E642F8C810E9402028D8150
:1009D0008F3F19F060E00E9402020F2D10E08F851A
:1009E00084FF25C06E0187E0C80ED11CF12CE12CDC
:1009F000B8010E2C02C0759567950A94E2F76170F4
:100A0000F60181916F010E940202FFEFEF1AFF0AC7
:100A100088E0E816F10461F7CE01DF91CF911F91D4
:100A20000F91FF90EF90DF90CF900C949604B80157
:100A300084E0759567958A95E1F7CE010E94AC0434
:100A40006F2DCE01DF91CF911F910F91FF90EF900D
:100A5000DF90CF900C94AC0440E0682F8CE193E0E1
:100A60000C94D90481E00E942C058BE39FE101974F
:100A7000F1F70895CF93DF93823029F490912B03FF
:100A8000986090932B0380932F031092300380E49F
:100A90008093310380E18093320380E580933303B8
:100AA00061E0809120030E943002809121038F3FFA
:100AB00019F061E00E94300261E0809122030E94FF
:100AC0003002CCE1D3E09E012C51334080912B03C6
:100AD00084FD0BC084E090E021962817390744F488
:100AE00061E08E810E943002EECF88E090E0F4CF8A
:100AF0008BE39DE00197F1F760E0809120030E9475
:100B0000020260E0809122030E9402028091210390
:100B10008F3F19F060E00E94020280912B0384FD58
:100B200034C063E08CE193E00E94AC04CBE4D6E4F3
:100B3000CE010197F1F763E08CE193E00E94AC04F1
:100B40002197F1F763E08CE193E00E94AC0483E528
:100B500092E00197F1F762E08CE193E00E94AC042F
:100B600080912B0380620E942C0584E080932C03EB
:100B70008CE00E942C050E94320582E080932D03B8
:100B800086E0DF91CF910C942C0580620E942C05A9
:100B90008BE496E40197F1F780912B0380620E9429
:100BA0002C0583E592E00197F1F780912B03806299
:100BB0000E942C05D5CF90912F03691710F06FEF8D
:100BC000690FE62FF0E0E45EFC4F9489890F80689E
:100BD0000C942C0541E00E94D90481E090E0089536
:100BE000FB0101900020E9F73197AF01461B570B3D
:100BF000DC01ED91FC910280F381E02D099460E32A
:100C000071E08FE792E00C94F0058F929F92AF9283
:100C1000BF92EF92FF920F931F93CF93DF93CDB7C5
:100C2000DEB7A1970FB6F894DEBF0FBECDBF7C0133
:100C3000FA01CB0119A2223008F42AE08E010F5DDF
:100C40001F4F822E912CB12CA12CBF01A501940124
:100C50000E944E10F901CA016A300CF5605DD8019E
:100C60006E938D01232B242B252B79F790E080E0C8
:100C7000109721F0BD01C7010E94F005A1960FB6A3
:100C8000F894DEBF0FBECDBFDF91CF911F910F91C2
:100C9000FF90EF90BF90AF909F908F900895695C08
:100CA000DECFCF92DF92EF92FF920F931F93CF93FD
:100CB000DF936B01770FEE08FF08F7FE1BC0EC0116
:100CC0006DE20E94C5008C0144275527BA014C19DA
:100CD0005D096E097F092AE0CE010E940506800F9A
:100CE000911FDF91CF911F910F91FF90EF90DF90B7
:100CF000CF9008952AE0B701A601DF91CF911F910F
:100D00000F91FF90EF90DF90CF900C9405062F92FB
:100D10003F924F925F926F927F928F929F92AF928B
:100D2000BF92CF92DF92EF92FF921F93CF93DF9308
:100D3000EC016A017B01722EAB019601CB01B60179
:100D40000E94351063E371E0811126C0460157010E
:100D5000E894B7F82FEF3FEF4FE75FE7C501B40125
:100D60000E94351081110CC02FEF3FEF4FE75FE776
:100D7000C501B4010E94640E67E371E0181664F0C7
:100D80002FEF3FEF4FE75FE4C701B6010E94C30FAB
:100D90001816B4F46BE371E0CE01DF91CF911F918F
:100DA000FF90EF90DF90CF90BF90AF909F908F908B
:100DB0007F906F905F904F903F902F900C94F00534
:100DC0002FEF3FEF4FE75FECC701B6010E94640EC3
:100DD00087FDE0CF20E030E0A901C701B6010E9405
:100DE000640E312C212C87FF09C06DE2CE010E94D8
:100DF000C5001C01F7FAF094F7F8F09410E060E0F9
:100E000070E080E09FE3711641F020E030E040E2C6
:100E100051E40E94690E1F5FF6CFA70196010E9460
:100E2000F80D2B013C010E94E20E4B015C012AE00F
:100E3000BC01A401CE010E9405067C01E20CF31C5A
:100E40001123C1F1C501B4010E94110F9B01AC0136
:100E5000C301B2010E94F70D4B015C016EE2CE01AD
:100E60000E94C500E80EF91E115020F120E030E08C
:100E700040E251E4C501B4010E94C80F2B013C01BE
:100E80000E94E20E4B01B12CA12C2AE0B501A40175
:100E9000CE010E940506E80EF91EC501B4010E94AC
:100EA000110F9B01AC01C301B2010E94F70D4B0170
:100EB0005C01DACFC701DF91CF911F91FF90EF90D6
:100EC000DF90CF90BF90AF909F908F907F906F906A
:100ED0005F904F903F902F9008950C94F0051F92D3
:100EE0000F920FB60F9211242F933F934F935F935E
:100EF0006F937F938F939F93AF93BF93EF93FF93E2
:100F00008FE792E00E944A01FF91EF91BF91AF916C
:100F10009F918F917F916F915F914F913F912F9111
:100F20000F900FBE0F901F9018951F920F920FB643
:100F30000F9211242F938F939F93EF93FF93E09140
:100F40008F02F09190028081E0919502F0919602DB
:100F500082FD1BC09081809198028F5F8F732091DA
:100F60009902821741F0E0919802F0E0E158FD4FBC
:100F7000958F80939802FF91EF919F918F912F9180
:100F80000F900FBE0F901F9018958081F4CF1F9285
:100F90000F920FB60F9211242F933F938F939F932D
:100FA000AF93BF9380917B0290917C02A0917D02D0
:100FB000B0917E023091720223E0230F2D3758F555
:100FC0000196A11DB11D2093720280937B02909324
:100FD0007C02A0937D02B0937E0280917302909177
:100FE0007402A0917502B09176020196A11DB11D07
:100FF0008093730290937402A0937502B09376026B
:10100000BF91AF919F918F913F912F910F900FBE04
:101010000F901F90189526E8230F0296A11DB11D71
:10102000D2CF1F920F920FB60F9211242F933F939E
:101030004F935F936F937F938F939F93AF93BF93E0
:10104000EF93FF93E0917902F0917A02309749F0A3
:10105000A685B7858585968D91FF14C09C918923BF
:10106000A1F4FF91EF91BF91AF919F918F917F91EB
:101070006F915F914F913F912F910F900FBE0F9005
:101080001F9018959C91892361F7A389B4899C913D
:101090008589809589238C93868997890197F1F7B3
:1010A000608D718DA685B785558538E020E0CB0130
:1010B0000197F1F7822F90E095958795282F4C9115
:1010C000452309F02068315091F7868D81FD2095E8
:1010D0008091780290E001968F7399273091770282
:1010E000381799F0A0917802B0E0AE5CBD4F2C9318
:1010F00080937802828D938D0197F1F7A389B4894B
:101100008C919589892B8C93ACCF868D8160868F4D
:10111000F1CF109282021092810288EE93E0A0E05B
:10112000B0E08093830290938402A0938502B093F1
:10113000860224E031E03093800220937F0225EC88
:1011400030E030938C0220938B0224EC30E030931B
:101150008E0220938D0220EC30E030939002209399
:101160008F0221EC30E0309392022093910222EC26
:1011700030E0309394022093930226EC30E03093D9
:101180009602209395021092980210929902109262
:101190009A0210929B0228E0209358032BE02093A0
:1011A0005903E6EBF0E0E491E0935A03E2EAF0E061
:1011B000E491E0935B0340E85EE360E070E040931D
:1011C0006003509361036093620370936303109212
:1011D0003703109236038093380390933903A0931A
:1011E0003A03B0933B0382E291E0909335038093FE
:1011F000340310924B0310924A0310924D03109245
:101200004C0310924F0310924E0310925103109210
:101210005003609152036E7F6D7F60935203669519
:10122000617081E068278AE00E94020261E08AE042
:101230000E943002E8EBF0E0E491E0934403E4EA3A
:10124000F0E0E491F0E0EE0FFF1FE057FF4F8591D3
:101250009491909346038093450360E08DE00E9453
:1012600030028091520381FD04C061E08DE00E9454
:1012700002028DE080934003EBEBF0E0E491E09319
:101280004103E7EAF0E0E491F0E0EE0FFF1FEA57D8
:10129000FF4F859194919093430380934203109262
:1012A0001F0310921E0386E191E090931D0380932B
:1012B0001C0382E0809320038FEF8093210383E05F
:1012C0008093220384E08093230385E080932403AA
:1012D00086E08093250387E08093260310922703FE
:1012E000109228031092290310922A0310922B03C4
:1012F00081E00C943A05789484B5826084BD84B50D
:10130000816084BD85B5826085BD85B5816085BD00
:1013100080916E00816080936E00109281008091B8
:101320008100826080938100809181008160809340
:101330008100809180008160809380008091B10065
:1013400084608093B1008091B00081608093B00090
:1013500080917A00846080937A0080917A00826024
:1013600080937A0080917A00816080937A008091E6
:101370007A00806880937A001092C100E0918F0219
:10138000F091900282E08083E0918B02F0918C02D8
:101390001082E0918D02F0918E028FEC808310928A
:1013A0009702E0919302F091940286E08083E091AD
:1013B0009102F0919202808180618083E09191029C
:1013C000F0919202808188608083E0919102F09197
:1013D0009202808180688083E0919102F091920274
:1013E00080818F7D808310924F0310924E03109264
:1013F0004D0310924C0310924B0310924A038DE957
:1014000091E0909351038093500390914003963163
:1014100008F047C02DEB30E030934B0320934A0394
:101420002BE931E030934D0320934C032CE231E063
:1014300030934F0320934E032091680084E098304E
:1014400048F031E09E3008F430E081E001C0880FC0
:101450003A95EAF7822B809368002DE630E09830C9
:1014600050F02BE630E09E3030F02CE630E0963144
:1014700010F030E020E03093480320934703292FF9
:1014800030E0983008F093C081E001C0880F9A9551
:10149000EAF780934903809150039091510301979B
:1014A000F1F780914E0390914F03892B49F1E09120
:1014B0007902F0917A0223E0E433F20709F13097E0
:1014C00039F0A389B4899C918589809589238C936F
:1014D000809152038E7F8093520310927802109273
:1014E000770284E393E090937A0280937902E0910B
:1014F0004703F0914803808190914903892B8083B1
:1015000082E00E943A0562E0809158030E94300216
:101510002FB7F89480917B0290917C02A0917D027C
:10152000B0917E022FBF805D9740A109B1098093E1
:101530005C0390935D03A0935E03B0935F0387E326
:101540008093650361E08DE00E94300261E089E0F4
:101550000E94300261E08AE00E94300261E08CE08B
:101560000E94300220E0222E20E0322E60E080E057
:101570000E94DB056FE371E08CE193E00E946D0750
:1015800061E080E00E94DB050E94D502882351F0D3
:10159000809159038B3030F08D30B0F0855182301E
:1015A00008F442C060E070E080EC9FE729C09E3004
:1015B00040F42850310981E001C0880F2A95EAF7EC
:1015C00068CF2E503109F7CF6091540370E090E05E
:1015D00080E00E94130F2DEC3CEC4CEC5DE30E948C
:1015E000C80F6B017C016091530370E090E080E0D4
:1015F0000E94130F9B01AC01C701B6010E94F80DB8
:101600000E94DB0E4B010E94D502882341F080919D
:1016100059038C3009F490C2C8F48B3081F160E03A
:1016200070E080EC9FE753C06091530370915403C6
:1016300076276727762790E080E00E94110F2DEC37
:101640003CEC4CEC5DE30E94C80FDACF8551823050
:1016500030F7C09155036C2F70E0762F6627662710
:101660007F7780915603682B90E080E00E94110FF5
:101670002DEC3CEC4CEC5DE30E94C80F79C260910C
:10168000550370E090E080E00E94110F6B017C0137
:10169000C0915603C7FF0AC0AC019B0160E070E037
:1016A00080E89FEB0E94F70D6B017C01CF706C2FDF
:1016B00070E090E080E00E94130F2DEC3CEC4CECCD
:1016C0005DE30E94C80FA70196010E94F80D0E94D9
:1016D000DB0E6B01EB016D3171050CF44DC261E065
:1016E0008AE00E94020261E080E00E94DB056DE476
:1016F00071E08CE193E00E946D0760E086E00E945B
:10170000DB05B6018CE193E00E94510660E08EE0BB
:101710000E94DB05B4018CE193E00E94510668EE63
:1017200073E080E090E00E94A3020E9432052F97B0
:10173000A4F461E08DE00E94020261E080E00E947A
:10174000DB0562E671E08CE193E00E946D0768EED4
:1017500073E080E090E00E94A3020E9432058EE0D8
:101760000E946C028C016FE671E08CE193E00E94B4
:101770006D0760E087E00E94DB05B8018CE193E033
:101780000E9451066CED75E080E090E00E94A3029B
:101790000E943205C801855591408F32924008F071
:1017A000F6C161E089E00E94020260E080E00E94F0
:1017B000DB0566E771E08CE193E00E946D0768EE5F
:1017C00073E080E090E00E94A3020E943205EDE702
:1017D000F0E08491E9EBF0E0D491E5EAF0E0C49127
:1017E000CC2309F4DBC181110E94D901EC2FF0E078
:1017F000EE0FFF1FEA57FF4FA591B4918C91D823AC
:1018000091E080E009F490E0C92FD82F60E080E0FB
:101810000E94DB05219709F071C067E871E08CE157
:1018200093E00E946D0768EE73E080E090E00E9414
:10183000A3020E94320567E971E08CE193E00E9407
:101840006D0761E080E00E94DB0565EA71E08CE1F4
:1018500093E00E946D0768EE73E080E090E00E94E4
:10186000A3020E94FF0563EB71E08FE792E00E9404
:10187000F0050E94FF056CE271E080E090E00E94BC
:10188000A3020E94FF056DEB71E08FE792E00E94DA
:101890006D070E94FF056CE271E080E090E00E941D
:1018A000A30265ED71E08FE792E00E946D0764E6A8
:1018B00070E080E090E00E94A3020E94FF056AE1D0
:1018C0008FE792E00E946C010E94320564EE71E0A5
:1018D0008CE193E00E946D0761E080E00E94DB05EF
:1018E00063EF71E08CE193E00E946D0768EE73E0B6
:1018F00080E090E00E94A3020E94320583E10E94F2
:101900006C02BC01990F880B990B0E94130F2B01DD
:101910003C016CEF71E08CE193E00E946D0761E0A7
:1019200080E00E94DB0522E0B301A2018CE193E09C
:101930000E94870664EF71E080E090E00E94A302BD
:101940000E94320520E030E04FE254E4C301B201CE
:101950000E94C30F60E018160CF023C180E00E94C3
:10196000DB056CE072E08CE193E00E946D0760E0C3
:1019700085E00E94DB0560E172E08CE193E00E946B
:101980006D0764EF71E080E090E00E94A30261E0E7
:101990008CE00E94020261E080E00E94DB0565E1CC
:1019A00072E08CE193E00E946D0720E030E046E9B0
:1019B00053E4C301B2010E94C30F87FD2CC020E095
:1019C00030E04FE254E4C301B2010E94640E1816E5
:1019D00014F160E080E00E94DB0566E272E08CE1D9
:1019E00093E00E946D0760E086E00E94DB0560E105
:1019F00072E08CE193E00E946D0760E08CE00E9451
:101A0000020261E080E00E94DB056DE172E08CE1A2
:101A100093E00E946D0720E030E046E953E4C30103
:101A2000B2010E94640E87FF22C060E080E00E9445
:101A3000DB056CE272E08CE193E00E946D0760E0F0
:101A400087E00E94DB0560E172E08CE193E00E9498
:101A50006D0760E08CE00E94020261E080E00E947D
:101A6000DB056DE172E08CE193E00E946D0763EBB2
:101A700071E08FE792E00E94F0050E94FF056CE2A2
:101A800071E080E090E00E94A3020E94FF056DEBF0
:101A900071E08FE792E00E946D070E94FF056CE203
:101AA00071E080E090E00E94A302B6018FE792E02F
:101AB0000E94510664E670E080E090E00E94A3027C
:101AC000B4018FE792E00E94510664E670E080E086
:101AD00090E00E94A30222E0B301A2018FE792E00E
:101AE0000E94870664E670E080E090E00E94A30216
:101AF000B8018FE792E00E94510664E670E080E052
:101B000090E00E94A3020E94FF056AE18FE792E045
:101B10000E946C0168E873E180E090E00E94A302FB
:101B20002114310409F422CD0E943601882309F4DE
:101B30001DCD0E9400001ACDC09155036C2F70E09E
:101B400090E080E00E94110F6B017C0160915603D0
:101B50006F7070E090E080E00E94130F2DEC3CEC81
:101B60004CEC5DE30E94C80FA70196010E94F80D9E
:101B7000C7FFADCD9058ABCD60E08AE00E94020275
:101B800061E080E00E94DB0567E571E0B2CD60E0D6
:101B900089E00E9402026EE771E00DCED0E0C0E065
:101BA00035CE8CE00E94020261E080E00E94DB05FD
:101BB0006DE172E0F6CE82E291E09093350380937E
:101BC00034038091790290917A028453934071F4A6
:101BD000E0914703F09148039081809149038095FB
:101BE0008923808310927A021092790208955058C6
:101BF000BB27AA270E940F0E0C94890F0E947B0F0F
:101C000038F00E94820F20F039F49F3F19F426F437
:101C10000C94780F0EF4E095E7FB0C94720FE92F0B
:101C20000E949A0F58F3BA17620773078407950743
:101C300020F079F4A6F50C94BC0F0EF4E0950B2E71
:101C4000BA2FA02D0B01B90190010C01CA01A0010E
:101C50001124FF27591B99F0593F50F4503E68F169
:101C60001A16F040A22F232F342F4427585FF3CFAA
:101C7000469537952795A795F0405395C9F77EF47B
:101C80001F16BA0B620B730B840BBAF09150A1F0C4
:101C9000FF0FBB1F661F771F881FC2F70EC0BA0F4A
:101CA000621F731F841F48F4879577956795B795D2
:101CB000F7959E3F08F0B0CF9395880F08F09927CD
:101CC000EE0F9795879508950E944E0F08F481E0D6
:101CD00008950E947D0E0C94890F0E94820F58F087
:101CE0000E947B0F40F029F45F3F29F00C94720FA3
:101CF00051110C94BD0F0C94780F0E949A0F68F349
:101D00009923B1F3552391F3951B550BBB27AA27B4
:101D100062177307840738F09F5F5F4F220F331FEE
:101D2000441FAA1FA9F335D00E2E3AF0E0E832D0B6
:101D300091505040E695001CCAF72BD0FE2F29D0B9
:101D4000660F771F881FBB1F261737074807AB078B
:101D5000B0E809F0BB0B802DBF01FF2793585F4F00
:101D60003AF09E3F510578F00C94720F0C94BD0F21
:101D70005F3FE4F3983ED4F3869577956795B795E2
:101D8000F7959F5FC9F7880F911D9695879597F9ED
:101D90000895E1E0660F771F881FBB1F6217730766
:101DA0008407BA0720F0621B730B840BBA0BEE1F7B
:101DB00088F7E09508950E94E20E6894B1110C94A2
:101DC000BD0F08950E94A20F88F09F5798F0B92F79
:101DD0009927B751B0F0E1F0660F771F881F991F60
:101DE0001AF0BA95C9F714C0B13091F00E94BC0F37
:101DF000B1E008950C94BC0F672F782F8827B85F47
:101E000039F0B93FCCF3869577956795B395D9F7B7
:101E10003EF490958095709561957F4F8F4F9F4FC1
:101E20000895E89409C097FB3EF4909580957095CD
:101E300061957F4F8F4F9F4F9923A9F0F92F96E916
:101E4000BB279395F695879577956795B795F1118B
:101E5000F8CFFAF4BB0F11F460FF1BC06F5F7F4F28
:101E60008F4F9F4F16C0882311F096E911C077233A
:101E700021F09EE8872F762F05C0662371F096E843
:101E8000862F70E060E02AF09A95660F771F881F12
:101E9000DAF7880F9695879597F90895990F0008B6
:101EA000550FAA0BE0E8FEEF16161706E807F9072C
:101EB000C0F012161306E407F50798F0621B730BC7
:101EC000840B950B39F40A2661F0232B242B252B48
:101ED00021F408950A2609F4A140A6958FEF811DEB
:101EE000811D089597F99F6780E870E060E008958C
:101EF0009FEF80EC089500240A9416161706180622
:101F00000906089500240A941216130614060506FD
:101F10000895092E0394000C11F4882352F0BB0F8E
:101F200040F4BF2B11F460FF04C06F5F7F4F8F4FF1
:101F30009F4F089557FD9058440F551F59F05F3F2C
:101F400071F04795880F97FB991F61F09F3F79F0DB
:101F500087950895121613061406551FF2CF46955D
:101F6000F1DF08C0161617061806991FF1CF8695DF
:101F70007105610508940895E894BB2766277727C3
:101F8000CB0197F908950E944E0F08F48FEF089542
:101F90000E94DB0F0C94890F0E947B0F38F00E9487
:101FA000820F20F0952311F00C94720F0C94780F8F
:101FB00011240C94BD0F0E949A0F70F3959FC1F3EA
:101FC000950F50E0551F629FF001729FBB27F00DE7
:101FD000B11D639FAA27F00DB11DAA1F649F66273C
:101FE000B00DA11D661F829F2227B00DA11D621F8B
:101FF000739FB00DA11D621F839FA00D611D221F45
:10200000749F3327A00D611D231F849F600D211D28
:10201000822F762F6A2F11249F5750409AF0F1F0AB
:1020200088234AF0EE0FFF1FBB1F661F771F881F14
:1020300091505040A9F79E3F510580F00C94720FCB
:102040000C94BD0F5F3FE4F3983ED4F386957795EB
:102050006795B795F795E7959F5FC1F7FE2B880FBA
:10206000911D9695879597F908950E944E0F880BBC
:10207000990B089597FB072E16F4009407D077FD6F
:1020800009D00E94701007FC05D03EF49095819510
:102090009F4F0895709561957F4F0895A1E21A2E84
:1020A000AA1BBB1BFD010DC0AA1FBB1FEE1FFF1FFC
:1020B000A217B307E407F50720F0A21BB30BE40B4C
:1020C000F50B661F771F881F991F1A9469F7609593
:1020D0007095809590959B01AC01BD01CF0108954D
:1020E000AA1BBB1B51E107C0AA1FBB1FA617B7073E
:1020F00010F0A61BB70B881F991F5A95A9F780955A
:102100009095BC01CD010895EE0FFF1F0590F4914D
:10211000E02D099410E0C2E6D0E004C0FE010E9468
:0E21200084102196C336D107C9F7F894FFCF7B
:10212E00000000006C01CC00F900B9012A01080181
:10213E001C0100000000EA05CC009304920400008C
:10214E000000FD03CC009304FC0359047104E40366
:10215E000D0A006E616E00696E66006F7666005441
:10216E00656D703A2020202048756D3A0046616EEC
:10217E00206973206F6E0046616E206973206F6652
:10218E006600486561746572206973206F6E004C3D
:10219E0075782069730042756C62206F6E0042750F
:1021AE006C62206F666600496E747275646572208B
:1021BE00416C657274210053656E64696E672041CF
:1021CE006C6572740053746174757320746F206D36
:1021DE006F620041542B434D47463D310041542B15
:1021EE00434D47533D222B39313937333936383445
:1021FE003430392200496E74727564657220466FF0
:10220E00756E6400537461747573207570646174B7
:10221E006564006F6E2050686F6E65004D6F697358
:10222E00742E206C6576656C2069730044525900DB
:10223E00534F494C0050554D503A4F4E0050554D4E
:10224E00503A4F4646004D4F49535400534F47475F
:02225E00590025
:00000001FF
