:100000000C9462000C948A000C948A000C948A0070
:100010000C948A000C948A000C948A000C948A0038
:100020000C948A000C948A000C948A000C948A0028
:100030000C948A000C948A000C948A000C948A0018
:100040000C9477020C948A000C948A000C948A0019
:100050000C948A000C948A000C948A000C948A00F8
:100060000C948A000C948A000000000023002600F3
:10007000290000000008000201000003040700003E
:1000800000000000000000000000250028002B00F8
:1000900000000000240027002A00040404040404D3
:1000A0000404020202020202030303030303010227
:1000B00004081020408001020408102001020408F6
:1000C0001020530311241FBECFEFD8E0DEBFCDBFF9
:1000D00011E0A0E0B1E0E2EFF6E002C005900D9281
:1000E000A631B107D9F721E0A6E1B1E001C01D9228
:1000F000A733B207E1F710E0C2E6D0E004C02197D1
:10010000FE010E947103C136D107C9F70E94C102E6
:100110000C9477030C94000090E0FC01E255FF4F33
:10012000249186569F4FFC018491882399F090E09A
:10013000880F991FFC01E057FF4FA591B491FC0176
:10014000EA57FF4F859194918FB7F894EC91E22B89
:10015000EC938FBF0895AF92BF92CF92DF92EF9250
:10016000FF920F931F93CF93DF936C017B018B0161
:10017000040F151FEB015E01AE18BF08C017D107B1
:1001800059F06991D601ED91FC910190F081E02D3B
:10019000C6010995892B79F7C501DF91CF911F9190
:1001A0000F91FF90EF90DF90CF90BF90AF900895A8
:1001B000833081F028F4813099F08230A9F00895DD
:1001C0008730A9F08830C9F08430B1F48091800084
:1001D0008F7D03C0809180008F7780938000089589
:1001E00084B58F7784BD089584B58F7DFBCF8091D2
:1001F000B0008F778093B00008958091B0008F7D1C
:10020000F9CF1F93CF93DF93282F30E0F901EE58F9
:10021000FF4F8491F901E255FF4FD491F901E65661
:10022000FF4FC491CC23A9F0162F81110E94D80052
:10023000EC2FF0E0EE0FFF1FEA57FF4FA591B491AE
:100240008FB7F894EC91111108C0D095DE23DC93A0
:100250008FBFDF91CF911F910895DE2BF8CF0895C6
:1002600090E080E00895CF93DF93EC0160E08E8111
:100270000E94010161E08E810E94010160E08E8197
:100280000E9401018BE891E00197F1F7DF91CF9196
:100290000895CF92DF92EF92FF920F931F93CF9327
:1002A000DF936C017C0187E0E80EF11CD0E0C0E038
:1002B000062F10E0B8010C2E02C0759567950A94C0
:1002C000E2F76170F70181917F010E94010121969F
:1002D000C430D10579F7C601DF91CF911F910F91FD
:1002E000FF90EF90DF90CF900C943301CF92DF928C
:1002F000EF92FF920F931F93CF93DF93EC01F62EB3
:10030000642F8C810E9401018D818F3F19F060E084
:100310000E9401010F2D10E08F8584FF25C06E0122
:1003200087E0C80ED11CF12CE12CB8010E2C02C0C4
:10033000759567950A94E2F76170F60181916F01F6
:100340000E940101FFEFEF1AFF0A88E0E816F104AE
:1003500061F7CE01DF91CF911F910F91FF90EF9048
:10036000DF90CF900C943301B80184E075956795C8
:100370008A95E1F7CE010E9449016F2DCE01DF91F0
:10038000CF911F910F91FF90EF90DF90CF900C9441
:10039000490140E0682F8FE191E00C947601CF9302
:1003A000DF93823029F490912E01986090932E0172
:1003B000809332011092330180E48093340180E114
:1003C0008093350180E580933601809123010E945E
:1003D0008C00809124018F3F11F00E948C0080914D
:1003E00025010E948C00CFE1D1E09E012F513140C8
:1003F00080912E0184FD0AC084E090E021962817A8
:1004000039073CF48E810E948C00EFCF88E090E0A9
:10041000F5CF8BE39DE00197F1F760E08091230138
:100420000E94010160E0809125010E9401018091FC
:1004300024018F3F19F060E00E94010180912E019C
:1004400084FD39C063E08FE191E00E944901CBE473
:10045000D6E4CE010197F1F763E08FE191E00E94CD
:1004600049012197F1F763E08FE191E00E94490192
:1004700083E592E00197F1F762E08FE191E00E945D
:10048000490180912E0180620E94C90184E080931D
:100490002F018CE00E94C90181E00E94C9018BE319
:1004A0009FE10197F1F782E08093300186E0DF91D0
:1004B000CF910C94C90180620E94C9018BE496E43B
:1004C0000197F1F780912E0180620E94C90183E5B6
:1004D00092E00197F1F780912E0180620E94C9019C
:1004E000D0CF41E00E94760181E090E008951F9214
:1004F0000F920FB60F9211242F933F938F939F93D8
:10050000AF93BF9380911B0190911C01A0911D019D
:10051000B0911E0130911A0123E0230F2D3758F5B9
:100520000196A11DB11D20931A0180931B01909388
:100530001C01A0931D01B0931E01809116019091A2
:100540001701A0911801B09119010196A11DB11DCB
:100550008093160190931701A0931801B09319018D
:10056000BF91AF919F918F913F912F910F900FBEAF
:100570000F901F90189526E8230F0296A11DB11D1C
:10058000D2CF789484B5826084BD84B5816084BD07
:1005900085B5826085BD85B5816085BD80916E0021
:1005A000816080936E001092810080918100826052
:1005B000809381008091810081608093810080918F
:1005C00080008160809380008091B100846080937E
:1005D000B1008091B00081608093B00080917A007A
:1005E000846080937A0080917A00826080937A00A0
:1005F00080917A00816080937A0080917A0080688F
:1006000080937A001092C10082E00E94CF01CDE772
:10061000D0E009EB10E095EAE92E90E0F92E20E019
:10062000C22E20E0D22EFE018491F801A490F701A1
:10063000B490BB20A9F181110E94D800EB2DF0E00D
:10064000EE0FFF1FE859FF4FA591B4918C91A8229E
:1006500091E080E009F490E0A92EB82EE1E08091CD
:1006600032018111E0E0E195F0E0E15EFE4F848926
:1006700080680E94C90143E050E06CE071E0AB2863
:1006800021F044E050E060E171E08FE191E00E94F0
:10069000AB00C114D10409F4C6CF0E940000C3CF3F
:1006A000B12CA12CDBCFEFE1F1E01382128284E0C8
:1006B00091E09183808382E084838FEF858383E060
:1006C000868384E0878385E0808786E0818787E072
:1006D00082871386148615861686178681E00C9409
:1006E000CF01EE0FFF1F0590F491E02D0994F894CF
:0206F000FFCF3A
:1006F200000000007102AB0030012F014C4F570087
:06070200484947480000D1
:00000001FF
